{
  "abi": [
    {
      "anonymous": false,
      "inputs": [
        {
          "indexed": true,
          "internalType": "address",
          "name": "previousOwner",
          "type": "address"
        },
        {
          "indexed": true,
          "internalType": "address",
          "name": "newOwner",
          "type": "address"
        }
      ],
      "name": "OwnershipTransferred",
      "type": "event"
    },
    {
      "inputs": [],
      "name": "deposit",
      "outputs": [],
      "stateMutability": "payable",
      "type": "function"
    },
    {
      "inputs": [],
      "name": "owner",
      "outputs": [
        {
          "internalType": "address",
          "name": "",
          "type": "address"
        }
      ],
      "stateMutability": "view",
      "type": "function"
    },
    {
      "inputs": [],
      "name": "renounceOwnership",
      "outputs": [],
      "stateMutability": "nonpayable",
      "type": "function"
    },
    {
      "inputs": [
        {
          "internalType": "address",
          "name": "newOwner",
          "type": "address"
        }
      ],
      "name": "transferOwnership",
      "outputs": [],
      "stateMutability": "nonpayable",
      "type": "function"
    },
    {
      "inputs": [
        {
          "internalType": "uint256",
          "name": "_amount",
          "type": "uint256"
        }
      ],
      "name": "withdraw",
      "outputs": [],
      "stateMutability": "payable",
      "type": "function"
    }
  ],
  "bytecode": {
    "object": "0x608060405234801561001057600080fd5b5061001a3361001f565b61006f565b600080546001600160a01b038381166001600160a01b0319831681178455604051919092169283917f8be0079c531659141344cd1fd0a4f28419497f9722a3daafe3b4186f6b6457e09190a35050565b6103c18061007e6000396000f3fe60806040526004361061004a5760003560e01c80632e1a7d4d1461004f578063715018a6146100645780638da5cb5b14610079578063d0e30db014610062578063f2fde38b146100a5575b600080fd5b61006261005d366004610317565b6100c5565b005b34801561007057600080fd5b506100626101e0565b34801561008557600080fd5b50600054604080516001600160a01b039092168252519081900360200190f35b3480156100b157600080fd5b506100626100c0366004610330565b6101f4565b6100cd61026d565b8047101561013e5760405162461bcd60e51b815260206004820152603360248201527f54686520616d6d6f756e7420746f2077697468647261772069732067726561746044820152726572207468616e207468652062616c616e636560681b60648201526084015b60405180910390fd5b600081116101865760405162461bcd60e51b8152602060048201526015602482015274086c2dcdcdee840eed2e8d0c8e4c2ee4060408ae8d605b1b6044820152606401610135565b3361019982670de0b6b3a7640000610360565b604051600081818185875af1925050503d80600081146101d5576040519150601f19603f3d011682016040523d82523d6000602084013e6101da565b606091505b50505050565b6101e861026d565b6101f260006102c7565b565b6101fc61026d565b6001600160a01b0381166102615760405162461bcd60e51b815260206004820152602660248201527f4f776e61626c653a206e6577206f776e657220697320746865207a65726f206160448201526564647265737360d01b6064820152608401610135565b61026a816102c7565b50565b6000546001600160a01b031633146101f25760405162461bcd60e51b815260206004820181905260248201527f4f776e61626c653a2063616c6c6572206973206e6f7420746865206f776e65726044820152606401610135565b600080546001600160a01b038381166001600160a01b0319831681178455604051919092169283917f8be0079c531659141344cd1fd0a4f28419497f9722a3daafe3b4186f6b6457e09190a35050565b60006020828403121561032957600080fd5b5035919050565b60006020828403121561034257600080fd5b81356001600160a01b038116811461035957600080fd5b9392505050565b808202811582820484141761038557634e487b7160e01b600052601160045260246000fd5b9291505056fea26469706673582212200712b30b048ebe5327b2d695ae38380a7beb7ed563ad0455ddbce1ca783fca5464736f6c63430008110033",
    "linkReferences": {}
  },
  "methodIdentifiers": {
    "deposit()": "d0e30db0",
    "owner()": "8da5cb5b",
    "renounceOwnership()": "715018a6",
    "transferOwnership(address)": "f2fde38b",
    "withdraw(uint256)": "2e1a7d4d"
  },
  "id": 16
}